{
  "transactions": [
    {
      "hash": "0x3c04dd03cbad1d30f481b4ed283b050e3f4d527ace50353680c92f476d61c05c",
      "transactionType": "CALL",
      "contractName": null,
      "contractAddress": "0xfeec000000000000000000000000000000000000",
      "function": "setUserToken(address)",
      "arguments": [
        "0x20C0000000000000000000000000000000000001"
      ],
      "transaction": {
        "from": "0x846cb48966870d58dba48d348545fc639812d942",
        "to": "0xfeec000000000000000000000000000000000000",
        "gas": "0x9d39",
        "value": "0x0",
        "input": "0xe789744400000000000000000000000020c0000000000000000000000000000000000001",
        "nonce": "0x5",
        "chainId": "0xa5bd",
        "feeToken": null,
        "calls": [],
        "keyType": null,
        "keyData": null
      },
      "additionalContracts": [],
      "isFixedGasLimit": false
    },
    {
      "hash": "0x6036d3e390da1b051f5b4a376c61b882de0650f6ed998d218d4a7bba1892bf6d",
      "transactionType": "CALL",
      "contractName": null,
      "contractAddress": "0x20fc000000000000000000000000000000000000",
      "function": "createToken(string,string,string,address,address)",
      "arguments": [
        "testUSD",
        "tUSD",
        "USD",
        "0x20C0000000000000000000000000000000000000",
        "0x846Cb48966870d58dBa48D348545Fc639812D942"
      ],
      "transaction": {
        "from": "0x846cb48966870d58dba48d348545fc639812d942",
        "to": "0x20fc000000000000000000000000000000000000",
        "gas": "0x48281",
        "value": "0x0",
        "input": "0xb395b9ac00000000000000000000000000000000000000000000000000000000000000a000000000000000000000000000000000000000000000000000000000000000e0000000000000000000000000000000000000000000000000000000000000012000000000000000000000000020c0000000000000000000000000000000000000000000000000000000000000846cb48966870d58dba48d348545fc639812d942000000000000000000000000000000000000000000000000000000000000000774657374555344000000000000000000000000000000000000000000000000000000000000000000000000000000000000000000000000000000000000000004745553440000000000000000000000000000000000000000000000000000000000000000000000000000000000000000000000000000000000000000000000035553440000000000000000000000000000000000000000000000000000000000",
        "nonce": "0x6",
        "chainId": "0xa5bd",
        "feeToken": null,
        "calls": [],
        "keyType": null,
        "keyData": null
      },
      "additionalContracts": [],
      "isFixedGasLimit": false
    },
    {
      "hash": "0xc0aa259d5c2abc869f857cd3977f460e6e543919bab53d127c5cf94b8c5bcdb4",
      "transactionType": "CALL",
      "contractName": null,
      "contractAddress": "0x20c0000000000000000000000000000000005f60",
      "function": "grantRole(bytes32,address)",
      "arguments": [
        "0x114e74f6ea3bd819998f78687bfcb11b140da08e9b7d222fa9c1f1ba1f2aa122",
        "0x846Cb48966870d58dBa48D348545Fc639812D942"
      ],
      "transaction": {
        "from": "0x846cb48966870d58dba48d348545fc639812d942",
        "to": "0x20c0000000000000000000000000000000005f60",
        "gas": "0x11fe3",
        "value": "0x0",
        "input": "0x2f2ff15d114e74f6ea3bd819998f78687bfcb11b140da08e9b7d222fa9c1f1ba1f2aa122000000000000000000000000846cb48966870d58dba48d348545fc639812d942",
        "nonce": "0x7",
        "chainId": "0xa5bd",
        "feeToken": null,
        "calls": [],
        "keyType": null,
        "keyData": null
      },
      "additionalContracts": [],
      "isFixedGasLimit": false
    },
    {
      "hash": "0x8828f9bca4c7b5fc65c81bd69e2397ffadfe18c66c15701743b55ab5e05499ae",
      "transactionType": "CALL",
      "contractName": null,
      "contractAddress": "0x20c0000000000000000000000000000000005f60",
      "function": "mint(address,uint256)",
      "arguments": [
        "0x846Cb48966870d58dBa48D348545Fc639812D942",
        "1000000000000"
      ],
      "transaction": {
        "from": "0x846cb48966870d58dba48d348545fc639812d942",
        "to": "0x20c0000000000000000000000000000000005f60",
        "gas": "0x2470c",
        "value": "0x0",
        "input": "0x40c10f19000000000000000000000000846cb48966870d58dba48d348545fc639812d942000000000000000000000000000000000000000000000000000000e8d4a51000",
        "nonce": "0x8",
        "chainId": "0xa5bd",
        "feeToken": null,
        "calls": [],
        "keyType": null,
        "keyData": null
      },
      "additionalContracts": [],
      "isFixedGasLimit": false
    },
    {
      "hash": "0xa9412eeaabc6c0f0fa7a47b155c043a2e6794396f25612ef2aca120843b2cb74",
      "transactionType": "CREATE",
      "contractName": "Mail",
      "contractAddress": "0xc5d73b5ddb73e4528bb5ed4d2daa3bea317c7522",
      "function": null,
      "arguments": [
        "0x20C0000000000000000000000000000000005F60"
      ],
      "transaction": {
        "from": "0x846cb48966870d58dba48d348545fc639812d942",
        "gas": "0x9048e",
        "value": "0x0",
        "input": "0x608060405234801561000f575f5ffd5b506040516107e33803806107e3833981810160405281019061003191906100e5565b805f5f6101000a81548173ffffffffffffffffffffffffffffffffffffffff021916908373ffffffffffffffffffffffffffffffffffffffff16021790555050610110565b5f5ffd5b5f73ffffffffffffffffffffffffffffffffffffffff82169050919050565b5f6100a38261007a565b9050919050565b5f6100b482610099565b9050919050565b6100c4816100aa565b81146100ce575f5ffd5b50565b5f815190506100df816100bb565b92915050565b5f602082840312156100fa576100f9610076565b5b5f610107848285016100d1565b91505092915050565b6106c68061011d5f395ff3fe608060405234801561000f575f5ffd5b5060043610610034575f3560e01c80634f76b5ff14610038578063fc0c546a14610054575b5f5ffd5b610052600480360381019061004d9190610407565b610072565b005b61005c610185565b60405161006991906104ce565b60405180910390f35b5f5f9054906101000a900473ffffffffffffffffffffffffffffffffffffffff1673ffffffffffffffffffffffffffffffffffffffff1663929c25393385845f015185602001516040518563ffffffff1660e01b81526004016100d89493929190610514565b6020604051808303815f875af11580156100f4573d5f5f3e3d5ffd5b505050506040513d601f19601f82011682018060405250810190610118919061058c565b508273ffffffffffffffffffffffffffffffffffffffff163373ffffffffffffffffffffffffffffffffffffffff167f64d16740b35b46dccf295947317caa74afbf545a5351f8f0e968a2ffd0a46e7a8484604051610178929190610662565b60405180910390a3505050565b5f5f9054906101000a900473ffffffffffffffffffffffffffffffffffffffff1681565b5f604051905090565b5f5ffd5b5f5ffd5b5f73ffffffffffffffffffffffffffffffffffffffff82169050919050565b5f6101e3826101ba565b9050919050565b6101f3816101d9565b81146101fd575f5ffd5b50565b5f8135905061020e816101ea565b92915050565b5f5ffd5b5f5ffd5b5f601f19601f8301169050919050565b7f4e487b71000000000000000000000000000000000000000000000000000000005f52604160045260245ffd5b6102628261021c565b810181811067ffffffffffffffff821117156102815761028061022c565b5b80604052505050565b5f6102936101a9565b905061029f8282610259565b919050565b5f67ffffffffffffffff8211156102be576102bd61022c565b5b6102c78261021c565b9050602081019050919050565b828183375f83830152505050565b5f6102f46102ef846102a4565b61028a565b9050828152602081018484840111156103105761030f610218565b5b61031b8482856102d4565b509392505050565b5f82601f83011261033757610336610214565b5b81356103478482602086016102e2565b91505092915050565b5f5ffd5b5f819050919050565b61036681610354565b8114610370575f5ffd5b50565b5f813590506103818161035d565b92915050565b5f819050919050565b61039981610387565b81146103a3575f5ffd5b50565b5f813590506103b481610390565b92915050565b5f604082840312156103cf576103ce610350565b5b6103d9604061028a565b90505f6103e884828501610373565b5f8301525060206103fb848285016103a6565b60208301525092915050565b5f5f5f6080848603121561041e5761041d6101b2565b5b5f61042b86828701610200565b935050602084013567ffffffffffffffff81111561044c5761044b6101b6565b5b61045886828701610323565b9250506040610469868287016103ba565b9150509250925092565b5f819050919050565b5f61049661049161048c846101ba565b610473565b6101ba565b9050919050565b5f6104a78261047c565b9050919050565b5f6104b88261049d565b9050919050565b6104c8816104ae565b82525050565b5f6020820190506104e15f8301846104bf565b92915050565b6104f0816101d9565b82525050565b6104ff81610354565b82525050565b61050e81610387565b82525050565b5f6080820190506105275f8301876104e7565b61053460208301866104e7565b61054160408301856104f6565b61054e6060830184610505565b95945050505050565b5f8115159050919050565b61056b81610557565b8114610575575f5ffd5b50565b5f8151905061058681610562565b92915050565b5f602082840312156105a1576105a06101b2565b5b5f6105ae84828501610578565b91505092915050565b5f81519050919050565b5f82825260208201905092915050565b8281835e5f83830152505050565b5f6105e9826105b7565b6105f381856105c1565b93506106038185602086016105d1565b61060c8161021c565b840191505092915050565b61062081610354565b82525050565b61062f81610387565b82525050565b604082015f8201516106495f850182610617565b50602082015161065c6020850182610626565b50505050565b5f6060820190508181035f83015261067a81856105df565b90506106896020830184610635565b939250505056fea2646970667358221220846c61d9654c832e9bb0107926d9efb344c94b526531cd9b5c347b0da1c1a4d764736f6c634300081e003300000000000000000000000020c0000000000000000000000000000000005f60",
        "nonce": "0x9",
        "chainId": "0xa5bd",
        "feeToken": null,
        "calls": [],
        "keyType": null,
        "keyData": null
      },
      "additionalContracts": [],
      "isFixedGasLimit": false
    }
  ],
  "receipts": [
    {
      "type": "0x2",
      "status": "0x1",
      "cumulativeGasUsed": "0x13276c",
      "logs": [
        {
          "address": "0xfeec000000000000000000000000000000000000",
          "topics": [
            "0xabc7758d4ca817ce0d125eb731121a1304c36077b791253be835b95472368856",
            "0x000000000000000000000000846cb48966870d58dba48d348545fc639812d942",
            "0x00000000000000000000000020c0000000000000000000000000000000000001"
          ],
          "data": "0x",
          "blockHash": "0x3a1cd13f1c16e566bc4061dd980d89c463b6f578c5135d91c7b82586a44ea5f3",
          "blockNumber": "0x569f6e",
          "blockTimestamp": "0x69414ea9",
          "transactionHash": "0xa9412eeaabc6c0f0fa7a47b155c043a2e6794396f25612ef2aca120843b2cb74",
          "transactionIndex": "0xd",
          "logIndex": "0x28",
          "removed": false
        },
        {
          "address": "0x20c0000000000000000000000000000000000001",
          "topics": [
            "0xddf252ad1be2c89b69c2b068fc378daa952ba7f163c4a11628f55a4df523b3ef",
            "0x000000000000000000000000846cb48966870d58dba48d348545fc639812d942",
            "0x000000000000000000000000feec000000000000000000000000000000000000"
          ],
          "data": "0x00000000000000000000000000000000000000000000000000000000000000fb",
          "blockHash": "0x3a1cd13f1c16e566bc4061dd980d89c463b6f578c5135d91c7b82586a44ea5f3",
          "blockNumber": "0x569f6e",
          "blockTimestamp": "0x69414ea9",
          "transactionHash": "0xa9412eeaabc6c0f0fa7a47b155c043a2e6794396f25612ef2aca120843b2cb74",
          "transactionIndex": "0xd",
          "logIndex": "0x29",
          "removed": false
        }
      ],
      "logsBloom": "0x00000000000000000000000800000000000000000000000000000000000002000000000000000000000000000000000000000000000000000000000000000000000004000000001000000008000000000008000000000000000000000000000000000000000000000084000000000000000000000000000000001010000000000000000000000000000000000022000000000000100000000040000000000000000020000000000000000000000400000000000000000000000000000000000000000002000000000000000000000000000000000080000000000000000000000000000000000000000100000000000002000800000000000000000000000000",
      "transactionHash": "0xa9412eeaabc6c0f0fa7a47b155c043a2e6794396f25612ef2aca120843b2cb74",
      "transactionIndex": "0xd",
      "blockHash": "0x3a1cd13f1c16e566bc4061dd980d89c463b6f578c5135d91c7b82586a44ea5f3",
      "blockNumber": "0x569f6e",
      "gasUsed": "0x61d0",
      "effectiveGasPrice": "0x2540e841e",
      "from": "0x846cb48966870d58dba48d348545fc639812d942",
      "to": "0xfeec000000000000000000000000000000000000",
      "contractAddress": null,
      "feeToken": "0x20c0000000000000000000000000000000000001",
      "feePayer": "0x846cb48966870d58dba48d348545fc639812d942"
    },
    {
      "type": "0x2",
      "status": "0x1",
      "cumulativeGasUsed": "0x166b44",
      "logs": [
        {
          "address": "0x20fc000000000000000000000000000000000000",
          "topics": [
            "0xaa63cb9ce3fadcd8a4edeec3460c4b3930e838803f6220fa00cb93dacdd63e01",
            "0x00000000000000000000000020c0000000000000000000000000000000005f60",
            "0x0000000000000000000000000000000000000000000000000000000000005f60"
          ],
          "data": "0x00000000000000000000000000000000000000000000000000000000000000a000000000000000000000000000000000000000000000000000000000000000e0000000000000000000000000000000000000000000000000000000000000012000000000000000000000000020c0000000000000000000000000000000000000000000000000000000000000846cb48966870d58dba48d348545fc639812d942000000000000000000000000000000000000000000000000000000000000000774657374555344000000000000000000000000000000000000000000000000000000000000000000000000000000000000000000000000000000000000000004745553440000000000000000000000000000000000000000000000000000000000000000000000000000000000000000000000000000000000000000000000035553440000000000000000000000000000000000000000000000000000000000",
          "blockHash": "0x3a1cd13f1c16e566bc4061dd980d89c463b6f578c5135d91c7b82586a44ea5f3",
          "blockNumber": "0x569f6e",
          "blockTimestamp": "0x69414ea9",
          "transactionHash": "0x3c04dd03cbad1d30f481b4ed283b050e3f4d527ace50353680c92f476d61c05c",
          "transactionIndex": "0xe",
          "logIndex": "0x2a",
          "removed": false
        },
        {
          "address": "0x20c0000000000000000000000000000000000001",
          "topics": [
            "0xddf252ad1be2c89b69c2b068fc378daa952ba7f163c4a11628f55a4df523b3ef",
            "0x000000000000000000000000846cb48966870d58dba48d348545fc639812d942",
            "0x000000000000000000000000feec000000000000000000000000000000000000"
          ],
          "data": "0x000000000000000000000000000000000000000000000000000000000000085c",
          "blockHash": "0x3a1cd13f1c16e566bc4061dd980d89c463b6f578c5135d91c7b82586a44ea5f3",
          "blockNumber": "0x569f6e",
          "blockTimestamp": "0x69414ea9",
          "transactionHash": "0x3c04dd03cbad1d30f481b4ed283b050e3f4d527ace50353680c92f476d61c05c",
          "transactionIndex": "0xe",
          "logIndex": "0x2b",
          "removed": false
        }
      ],
      "logsBloom": "0x00000000000000000000000000000000000000000000000000000000000002000000000000008000000000000080000000000000000000000000000000000000000004000000001000000008000000000008000000000000080000000000000000000000000800000004000000000000040000000000000000000010000000000000000000000000000000000020040000080000100000000040000000000000000020000000180000000000000000000000000000000000000000000000000040000002000000000002000000000000000000000000000000000000000000000000000000000000000000000000000000000002000000000000000000000000",
      "transactionHash": "0x3c04dd03cbad1d30f481b4ed283b050e3f4d527ace50353680c92f476d61c05c",
      "transactionIndex": "0xe",
      "blockHash": "0x3a1cd13f1c16e566bc4061dd980d89c463b6f578c5135d91c7b82586a44ea5f3",
      "blockNumber": "0x569f6e",
      "gasUsed": "0x343d8",
      "effectiveGasPrice": "0x2540e841e",
      "from": "0x846cb48966870d58dba48d348545fc639812d942",
      "to": "0x20fc000000000000000000000000000000000000",
      "contractAddress": null,
      "feeToken": "0x20c0000000000000000000000000000000000001",
      "feePayer": "0x846cb48966870d58dba48d348545fc639812d942"
    },
    {
      "type": "0x2",
      "status": "0x1",
      "cumulativeGasUsed": "0x17301d",
      "logs": [
        {
          "address": "0x20c0000000000000000000000000000000005f60",
          "topics": [
            "0x4811f35680ba814bed6b0b926a2949c8a1000f4f2443cfe9978745d46a251aec",
            "0x114e74f6ea3bd819998f78687bfcb11b140da08e9b7d222fa9c1f1ba1f2aa122",
            "0x000000000000000000000000846cb48966870d58dba48d348545fc639812d942",
            "0x000000000000000000000000846cb48966870d58dba48d348545fc639812d942"
          ],
          "data": "0x0000000000000000000000000000000000000000000000000000000000000001",
          "blockHash": "0x3a1cd13f1c16e566bc4061dd980d89c463b6f578c5135d91c7b82586a44ea5f3",
          "blockNumber": "0x569f6e",
          "blockTimestamp": "0x69414ea9",
          "transactionHash": "0x6036d3e390da1b051f5b4a376c61b882de0650f6ed998d218d4a7bba1892bf6d",
          "transactionIndex": "0xf",
          "logIndex": "0x2c",
          "removed": false
        },
        {
          "address": "0x20c0000000000000000000000000000000000001",
          "topics": [
            "0xddf252ad1be2c89b69c2b068fc378daa952ba7f163c4a11628f55a4df523b3ef",
            "0x000000000000000000000000846cb48966870d58dba48d348545fc639812d942",
            "0x000000000000000000000000feec000000000000000000000000000000000000"
          ],
          "data": "0x00000000000000000000000000000000000000000000000000000000000001f8",
          "blockHash": "0x3a1cd13f1c16e566bc4061dd980d89c463b6f578c5135d91c7b82586a44ea5f3",
          "blockNumber": "0x569f6e",
          "blockTimestamp": "0x69414ea9",
          "transactionHash": "0x6036d3e390da1b051f5b4a376c61b882de0650f6ed998d218d4a7bba1892bf6d",
          "transactionIndex": "0xf",
          "logIndex": "0x2d",
          "removed": false
        }
      ],
      "logsBloom": "0x00000000000000000000000000000000100000000000000000000000008002000000000000000000000000000000000000000000000000000000000000000000000006000000001000000008000000000008000000000000000000000000000000000000000000000004000000000000000000000000000000000052000000000000000000000000000000000020000000000000100000000041000000400000000020000000000000000000000000000000000000000000000000000001000000000002000000000000000000000000000000000000000000000000000000000000000004000000000000000000000000000000000000000000000000000000",
      "transactionHash": "0x6036d3e390da1b051f5b4a376c61b882de0650f6ed998d218d4a7bba1892bf6d",
      "transactionIndex": "0xf",
      "blockHash": "0x3a1cd13f1c16e566bc4061dd980d89c463b6f578c5135d91c7b82586a44ea5f3",
      "blockNumber": "0x569f6e",
      "gasUsed": "0xc4d9",
      "effectiveGasPrice": "0x2540e841e",
      "from": "0x846cb48966870d58dba48d348545fc639812d942",
      "to": "0x20c0000000000000000000000000000000005f60",
      "contractAddress": null,
      "feeToken": "0x20c0000000000000000000000000000000000001",
      "feePayer": "0x846cb48966870d58dba48d348545fc639812d942"
    },
    {
      "type": "0x2",
      "status": "0x1",
      "cumulativeGasUsed": "0x18d63c",
      "logs": [
        {
          "address": "0x20c0000000000000000000000000000000005f60",
          "topics": [
            "0xddf252ad1be2c89b69c2b068fc378daa952ba7f163c4a11628f55a4df523b3ef",
            "0x0000000000000000000000000000000000000000000000000000000000000000",
            "0x000000000000000000000000846cb48966870d58dba48d348545fc639812d942"
          ],
          "data": "0x000000000000000000000000000000000000000000000000000000e8d4a51000",
          "blockHash": "0x3a1cd13f1c16e566bc4061dd980d89c463b6f578c5135d91c7b82586a44ea5f3",
          "blockNumber": "0x569f6e",
          "blockTimestamp": "0x69414ea9",
          "transactionHash": "0xc0aa259d5c2abc869f857cd3977f460e6e543919bab53d127c5cf94b8c5bcdb4",
          "transactionIndex": "0x10",
          "logIndex": "0x2e",
          "removed": false
        },
        {
          "address": "0x20c0000000000000000000000000000000005f60",
          "topics": [
            "0x0f6798a560793a54c3bcfe86a93cde1e73087d944c0ea20544137d4121396885",
            "0x000000000000000000000000846cb48966870d58dba48d348545fc639812d942"
          ],
          "data": "0x000000000000000000000000000000000000000000000000000000e8d4a51000",
          "blockHash": "0x3a1cd13f1c16e566bc4061dd980d89c463b6f578c5135d91c7b82586a44ea5f3",
          "blockNumber": "0x569f6e",
          "blockTimestamp": "0x69414ea9",
          "transactionHash": "0xc0aa259d5c2abc869f857cd3977f460e6e543919bab53d127c5cf94b8c5bcdb4",
          "transactionIndex": "0x10",
          "logIndex": "0x2f",
          "removed": false
        },
        {
          "address": "0x20c0000000000000000000000000000000000001",
          "topics": [
            "0xddf252ad1be2c89b69c2b068fc378daa952ba7f163c4a11628f55a4df523b3ef",
            "0x000000000000000000000000846cb48966870d58dba48d348545fc639812d942",
            "0x000000000000000000000000feec000000000000000000000000000000000000"
          ],
          "data": "0x0000000000000000000000000000000000000000000000000000000000000439",
          "blockHash": "0x3a1cd13f1c16e566bc4061dd980d89c463b6f578c5135d91c7b82586a44ea5f3",
          "blockNumber": "0x569f6e",
          "blockTimestamp": "0x69414ea9",
          "transactionHash": "0xc0aa259d5c2abc869f857cd3977f460e6e543919bab53d127c5cf94b8c5bcdb4",
          "transactionIndex": "0x10",
          "logIndex": "0x30",
          "removed": false
        }
      ],
      "logsBloom": "0x000000000000000000000000000000000000000000000000000000000000020000000000000000000000000000000000000000000000000000000000000000000000040000200010000000080000000000080000000000000000000000000000000000000200000000040000000008000000000000004000000000120000000000000000000000000000000000200000000000001000000000410000004000000000a0000000000000000000000000000000000000000000000000000000000000000002000000000000000000000000000000000000000000000000000020000000000000000000000000000000000000000000000000000000000000000000",
      "transactionHash": "0xc0aa259d5c2abc869f857cd3977f460e6e543919bab53d127c5cf94b8c5bcdb4",
      "transactionIndex": "0x10",
      "blockHash": "0x3a1cd13f1c16e566bc4061dd980d89c463b6f578c5135d91c7b82586a44ea5f3",
      "blockNumber": "0x569f6e",
      "gasUsed": "0x1a61f",
      "effectiveGasPrice": "0x2540e841e",
      "from": "0x846cb48966870d58dba48d348545fc639812d942",
      "to": "0x20c0000000000000000000000000000000005f60",
      "contractAddress": null,
      "feeToken": "0x20c0000000000000000000000000000000000001",
      "feePayer": "0x846cb48966870d58dba48d348545fc639812d942"
    },
    {
      "type": "0x2",
      "status": "0x1",
      "cumulativeGasUsed": "0x1fc60c",
      "logs": [
        {
          "address": "0x20c0000000000000000000000000000000000001",
          "topics": [
            "0xddf252ad1be2c89b69c2b068fc378daa952ba7f163c4a11628f55a4df523b3ef",
            "0x000000000000000000000000846cb48966870d58dba48d348545fc639812d942",
            "0x000000000000000000000000feec000000000000000000000000000000000000"
          ],
          "data": "0x00000000000000000000000000000000000000000000000000000000000011c3",
          "blockHash": "0x3a1cd13f1c16e566bc4061dd980d89c463b6f578c5135d91c7b82586a44ea5f3",
          "blockNumber": "0x569f6e",
          "blockTimestamp": "0x69414ea9",
          "transactionHash": "0x8828f9bca4c7b5fc65c81bd69e2397ffadfe18c66c15701743b55ab5e05499ae",
          "transactionIndex": "0x11",
          "logIndex": "0x31",
          "removed": false
        }
      ],
      "logsBloom": "0x00000000000000000000000000000000000000000000000000000000000002000000000000000000000000000000000000000000000000000000000000000000000004000000001000000008000000000008000000000000000000000000000000000000000000000004000000000000000000000000000000000010000000000000000000000000000000000020000000000000100000000040000000000000000020000000000000000000000000000000000000000000000000000000000000000002000000000000000000000000000000000000000000000000000000000000000000000000000000000000000000000000000000000000000000000000",
      "transactionHash": "0x8828f9bca4c7b5fc65c81bd69e2397ffadfe18c66c15701743b55ab5e05499ae",
      "transactionIndex": "0x11",
      "blockHash": "0x3a1cd13f1c16e566bc4061dd980d89c463b6f578c5135d91c7b82586a44ea5f3",
      "blockNumber": "0x569f6e",
      "gasUsed": "0x6efd0",
      "effectiveGasPrice": "0x2540e841e",
      "from": "0x846cb48966870d58dba48d348545fc639812d942",
      "to": null,
      "contractAddress": "0xc5d73b5ddb73e4528bb5ed4d2daa3bea317c7522",
      "feeToken": "0x20c0000000000000000000000000000000000001",
      "feePayer": "0x846cb48966870d58dba48d348545fc639812d942"
    }
  ],
  "libraries": [],
  "pending": [],
  "returns": {},
  "timestamp": 1765887659886,
  "chain": 42429,
  "commit": "598b91b"
}