{
  "transactions": [
    {
      "hash": "0xd34f954dd0c5812045e048603243bab5855b6910526130280dd0dc3b6a87554c",
      "transactionType": "CALL",
      "contractName": null,
      "contractAddress": "0xfeec000000000000000000000000000000000000",
      "function": "setUserToken(address)",
      "arguments": [
        "0x20C0000000000000000000000000000000000001"
      ],
      "transaction": {
        "from": "0x8f3345e573f64453906a53f64945bf8b78322c84",
        "to": "0xfeec000000000000000000000000000000000000",
        "gas": "0x10898",
        "value": "0x0",
        "input": "0xe789744400000000000000000000000020c0000000000000000000000000000000000001",
        "nonce": "0x0",
        "chainId": "0xa5bd",
        "feeToken": null,
        "calls": [],
        "keyType": null,
        "keyData": null
      },
      "additionalContracts": [],
      "isFixedGasLimit": false
    },
    {
      "hash": "0x98f76fa5966c1a3b517898d3d98d0917d9e90032d2989bdf45b49b588224c868",
      "transactionType": "CALL",
      "contractName": null,
      "contractAddress": "0x20fc000000000000000000000000000000000000",
      "function": "createToken(string,string,string,address,address)",
      "arguments": [
        "testUSD",
        "tUSD",
        "USD",
        "0x20C0000000000000000000000000000000000000",
        "0x8f3345E573F64453906a53F64945Bf8b78322c84"
      ],
      "transaction": {
        "from": "0x8f3345e573f64453906a53f64945bf8b78322c84",
        "to": "0x20fc000000000000000000000000000000000000",
        "gas": "0x48281",
        "value": "0x0",
        "input": "0xb395b9ac00000000000000000000000000000000000000000000000000000000000000a000000000000000000000000000000000000000000000000000000000000000e0000000000000000000000000000000000000000000000000000000000000012000000000000000000000000020c00000000000000000000000000000000000000000000000000000000000008f3345e573f64453906a53f64945bf8b78322c84000000000000000000000000000000000000000000000000000000000000000774657374555344000000000000000000000000000000000000000000000000000000000000000000000000000000000000000000000000000000000000000004745553440000000000000000000000000000000000000000000000000000000000000000000000000000000000000000000000000000000000000000000000035553440000000000000000000000000000000000000000000000000000000000",
        "nonce": "0x1",
        "chainId": "0xa5bd",
        "feeToken": null,
        "calls": [],
        "keyType": null,
        "keyData": null
      },
      "additionalContracts": [],
      "isFixedGasLimit": false
    },
    {
      "hash": "0xd6a1e2dbe5b60b79aee4d4813e003d4f4bff5e704acfce4588177db272ea1c16",
      "transactionType": "CALL",
      "contractName": null,
      "contractAddress": "0x20c0000000000000000000000000000000005f0e",
      "function": "grantRole(bytes32,address)",
      "arguments": [
        "0x114e74f6ea3bd819998f78687bfcb11b140da08e9b7d222fa9c1f1ba1f2aa122",
        "0x8f3345E573F64453906a53F64945Bf8b78322c84"
      ],
      "transaction": {
        "from": "0x8f3345e573f64453906a53f64945bf8b78322c84",
        "to": "0x20c0000000000000000000000000000000005f0e",
        "gas": "0x11fe3",
        "value": "0x0",
        "input": "0x2f2ff15d114e74f6ea3bd819998f78687bfcb11b140da08e9b7d222fa9c1f1ba1f2aa1220000000000000000000000008f3345e573f64453906a53f64945bf8b78322c84",
        "nonce": "0x2",
        "chainId": "0xa5bd",
        "feeToken": null,
        "calls": [],
        "keyType": null,
        "keyData": null
      },
      "additionalContracts": [],
      "isFixedGasLimit": false
    },
    {
      "hash": "0x8d502abdbbd0828034f13bb936f1d119c74198afb6da6f8746db38a80c7ef58d",
      "transactionType": "CALL",
      "contractName": null,
      "contractAddress": "0x20c0000000000000000000000000000000005f0e",
      "function": "mint(address,uint256)",
      "arguments": [
        "0x8f3345E573F64453906a53F64945Bf8b78322c84",
        "1000000000000"
      ],
      "transaction": {
        "from": "0x8f3345e573f64453906a53f64945bf8b78322c84",
        "to": "0x20c0000000000000000000000000000000005f0e",
        "gas": "0x2470c",
        "value": "0x0",
        "input": "0x40c10f190000000000000000000000008f3345e573f64453906a53f64945bf8b78322c84000000000000000000000000000000000000000000000000000000e8d4a51000",
        "nonce": "0x3",
        "chainId": "0xa5bd",
        "feeToken": null,
        "calls": [],
        "keyType": null,
        "keyData": null
      },
      "additionalContracts": [],
      "isFixedGasLimit": false
    },
    {
      "hash": "0x754fbc493c7da44da1f313983c194798589c9a241e10cf7b612ea98694b74ce9",
      "transactionType": "CREATE",
      "contractName": "Mail",
      "contractAddress": "0xe63dccfe582e14d84578fd065d4bd5d6d8c9cbbd",
      "function": null,
      "arguments": [
        "0x20C0000000000000000000000000000000005f0e"
      ],
      "transaction": {
        "from": "0x8f3345e573f64453906a53f64945bf8b78322c84",
        "gas": "0x9048e",
        "value": "0x0",
        "input": "0x608060405234801561000f575f5ffd5b506040516107e33803806107e3833981810160405281019061003191906100e5565b805f5f6101000a81548173ffffffffffffffffffffffffffffffffffffffff021916908373ffffffffffffffffffffffffffffffffffffffff16021790555050610110565b5f5ffd5b5f73ffffffffffffffffffffffffffffffffffffffff82169050919050565b5f6100a38261007a565b9050919050565b5f6100b482610099565b9050919050565b6100c4816100aa565b81146100ce575f5ffd5b50565b5f815190506100df816100bb565b92915050565b5f602082840312156100fa576100f9610076565b5b5f610107848285016100d1565b91505092915050565b6106c68061011d5f395ff3fe608060405234801561000f575f5ffd5b5060043610610034575f3560e01c80634f76b5ff14610038578063fc0c546a14610054575b5f5ffd5b610052600480360381019061004d9190610407565b610072565b005b61005c610185565b60405161006991906104ce565b60405180910390f35b5f5f9054906101000a900473ffffffffffffffffffffffffffffffffffffffff1673ffffffffffffffffffffffffffffffffffffffff1663929c25393385845f015185602001516040518563ffffffff1660e01b81526004016100d89493929190610514565b6020604051808303815f875af11580156100f4573d5f5f3e3d5ffd5b505050506040513d601f19601f82011682018060405250810190610118919061058c565b508273ffffffffffffffffffffffffffffffffffffffff163373ffffffffffffffffffffffffffffffffffffffff167f64d16740b35b46dccf295947317caa74afbf545a5351f8f0e968a2ffd0a46e7a8484604051610178929190610662565b60405180910390a3505050565b5f5f9054906101000a900473ffffffffffffffffffffffffffffffffffffffff1681565b5f604051905090565b5f5ffd5b5f5ffd5b5f73ffffffffffffffffffffffffffffffffffffffff82169050919050565b5f6101e3826101ba565b9050919050565b6101f3816101d9565b81146101fd575f5ffd5b50565b5f8135905061020e816101ea565b92915050565b5f5ffd5b5f5ffd5b5f601f19601f8301169050919050565b7f4e487b71000000000000000000000000000000000000000000000000000000005f52604160045260245ffd5b6102628261021c565b810181811067ffffffffffffffff821117156102815761028061022c565b5b80604052505050565b5f6102936101a9565b905061029f8282610259565b919050565b5f67ffffffffffffffff8211156102be576102bd61022c565b5b6102c78261021c565b9050602081019050919050565b828183375f83830152505050565b5f6102f46102ef846102a4565b61028a565b9050828152602081018484840111156103105761030f610218565b5b61031b8482856102d4565b509392505050565b5f82601f83011261033757610336610214565b5b81356103478482602086016102e2565b91505092915050565b5f5ffd5b5f819050919050565b61036681610354565b8114610370575f5ffd5b50565b5f813590506103818161035d565b92915050565b5f819050919050565b61039981610387565b81146103a3575f5ffd5b50565b5f813590506103b481610390565b92915050565b5f604082840312156103cf576103ce610350565b5b6103d9604061028a565b90505f6103e884828501610373565b5f8301525060206103fb848285016103a6565b60208301525092915050565b5f5f5f6080848603121561041e5761041d6101b2565b5b5f61042b86828701610200565b935050602084013567ffffffffffffffff81111561044c5761044b6101b6565b5b61045886828701610323565b9250506040610469868287016103ba565b9150509250925092565b5f819050919050565b5f61049661049161048c846101ba565b610473565b6101ba565b9050919050565b5f6104a78261047c565b9050919050565b5f6104b88261049d565b9050919050565b6104c8816104ae565b82525050565b5f6020820190506104e15f8301846104bf565b92915050565b6104f0816101d9565b82525050565b6104ff81610354565b82525050565b61050e81610387565b82525050565b5f6080820190506105275f8301876104e7565b61053460208301866104e7565b61054160408301856104f6565b61054e6060830184610505565b95945050505050565b5f8115159050919050565b61056b81610557565b8114610575575f5ffd5b50565b5f8151905061058681610562565b92915050565b5f602082840312156105a1576105a06101b2565b5b5f6105ae84828501610578565b91505092915050565b5f81519050919050565b5f82825260208201905092915050565b8281835e5f83830152505050565b5f6105e9826105b7565b6105f381856105c1565b93506106038185602086016105d1565b61060c8161021c565b840191505092915050565b61062081610354565b82525050565b61062f81610387565b82525050565b604082015f8201516106495f850182610617565b50602082015161065c6020850182610626565b50505050565b5f6060820190508181035f83015261067a81856105df565b90506106896020830184610635565b939250505056fea2646970667358221220846c61d9654c832e9bb0107926d9efb344c94b526531cd9b5c347b0da1c1a4d764736f6c634300081e003300000000000000000000000020c0000000000000000000000000000000005f0e",
        "nonce": "0x4",
        "chainId": "0xa5bd",
        "feeToken": null,
        "calls": [],
        "keyType": null,
        "keyData": null
      },
      "additionalContracts": [],
      "isFixedGasLimit": false
    }
  ],
  "receipts": [
    {
      "type": "0x2",
      "status": "0x1",
      "cumulativeGasUsed": "0x20ef85",
      "logs": [
        {
          "address": "0xfeec000000000000000000000000000000000000",
          "topics": [
            "0xabc7758d4ca817ce0d125eb731121a1304c36077b791253be835b95472368856",
            "0x0000000000000000000000008f3345e573f64453906a53f64945bf8b78322c84",
            "0x00000000000000000000000020c0000000000000000000000000000000000001"
          ],
          "data": "0x",
          "blockHash": "0x3b76420368e0ab360b65e9fb9de6c7fe74cb42de6920b95cbf841f6c478fbf8d",
          "blockNumber": "0x569afa",
          "blockTimestamp": "0x69414c59",
          "transactionHash": "0xd34f954dd0c5812045e048603243bab5855b6910526130280dd0dc3b6a87554c",
          "transactionIndex": "0xa",
          "logIndex": "0x22",
          "removed": false
        },
        {
          "address": "0x20c0000000000000000000000000000000000001",
          "topics": [
            "0xddf252ad1be2c89b69c2b068fc378daa952ba7f163c4a11628f55a4df523b3ef",
            "0x0000000000000000000000008f3345e573f64453906a53f64945bf8b78322c84",
            "0x000000000000000000000000feec000000000000000000000000000000000000"
          ],
          "data": "0x00000000000000000000000000000000000000000000000000000000000001c2",
          "blockHash": "0x3b76420368e0ab360b65e9fb9de6c7fe74cb42de6920b95cbf841f6c478fbf8d",
          "blockNumber": "0x569afa",
          "blockTimestamp": "0x69414c59",
          "transactionHash": "0xd34f954dd0c5812045e048603243bab5855b6910526130280dd0dc3b6a87554c",
          "transactionIndex": "0xa",
          "logIndex": "0x23",
          "removed": false
        }
      ],
      "logsBloom": "0x00000000000000000000000800000000000000000000000000000000000000000008000000000000000000000000000000000000000000000000000000000000000004000000000000000008000000000008000000000000000000000000000000200000000000000080000000000000000000000000000000001010000000000000000000000000000000000022000000000000100000000040000000000000000020000000000000000000000400000000000000000000000000000000000000000002000000000000000000000000000000000080000000000800000000000000000000000000000100000000000002000800000000000000000000000000",
      "transactionHash": "0xd34f954dd0c5812045e048603243bab5855b6910526130280dd0dc3b6a87554c",
      "transactionIndex": "0xa",
      "blockHash": "0x3b76420368e0ab360b65e9fb9de6c7fe74cb42de6920b95cbf841f6c478fbf8d",
      "blockNumber": "0x569afa",
      "gasUsed": "0xaf8c",
      "effectiveGasPrice": "0x2540e841e",
      "from": "0x8f3345e573f64453906a53f64945bf8b78322c84",
      "to": "0xfeec000000000000000000000000000000000000",
      "contractAddress": null,
      "feeToken": "0x20c0000000000000000000000000000000000001",
      "feePayer": "0x8f3345e573f64453906a53f64945bf8b78322c84"
    },
    {
      "type": "0x2",
      "status": "0x1",
      "cumulativeGasUsed": "0x24335d",
      "logs": [
        {
          "address": "0x20fc000000000000000000000000000000000000",
          "topics": [
            "0xaa63cb9ce3fadcd8a4edeec3460c4b3930e838803f6220fa00cb93dacdd63e01",
            "0x00000000000000000000000020c0000000000000000000000000000000005f0e",
            "0x0000000000000000000000000000000000000000000000000000000000005f0e"
          ],
          "data": "0x00000000000000000000000000000000000000000000000000000000000000a000000000000000000000000000000000000000000000000000000000000000e0000000000000000000000000000000000000000000000000000000000000012000000000000000000000000020c00000000000000000000000000000000000000000000000000000000000008f3345e573f64453906a53f64945bf8b78322c84000000000000000000000000000000000000000000000000000000000000000774657374555344000000000000000000000000000000000000000000000000000000000000000000000000000000000000000000000000000000000000000004745553440000000000000000000000000000000000000000000000000000000000000000000000000000000000000000000000000000000000000000000000035553440000000000000000000000000000000000000000000000000000000000",
          "blockHash": "0x3b76420368e0ab360b65e9fb9de6c7fe74cb42de6920b95cbf841f6c478fbf8d",
          "blockNumber": "0x569afa",
          "blockTimestamp": "0x69414c59",
          "transactionHash": "0x754fbc493c7da44da1f313983c194798589c9a241e10cf7b612ea98694b74ce9",
          "transactionIndex": "0xb",
          "logIndex": "0x24",
          "removed": false
        },
        {
          "address": "0x20c0000000000000000000000000000000000001",
          "topics": [
            "0xddf252ad1be2c89b69c2b068fc378daa952ba7f163c4a11628f55a4df523b3ef",
            "0x0000000000000000000000008f3345e573f64453906a53f64945bf8b78322c84",
            "0x000000000000000000000000feec000000000000000000000000000000000000"
          ],
          "data": "0x000000000000000000000000000000000000000000000000000000000000085c",
          "blockHash": "0x3b76420368e0ab360b65e9fb9de6c7fe74cb42de6920b95cbf841f6c478fbf8d",
          "blockNumber": "0x569afa",
          "blockTimestamp": "0x69414c59",
          "transactionHash": "0x754fbc493c7da44da1f313983c194798589c9a241e10cf7b612ea98694b74ce9",
          "transactionIndex": "0xb",
          "logIndex": "0x25",
          "removed": false
        }
      ],
      "logsBloom": "0x00000000000000000000010000000000000000000000000000000000000000000008000000000000000000000080000000000000000000000000000000000000000004000000000000000008000000000008000000000000080000000000001000200000000000000000000000000000000000000000000000000010000000100000000000000000000000000020040000000000100000000040000000000000000020000000100000000001000000000000000000000000000000000000000040040002000000000002000000000000000000000000000000000800000000000000000000000000000000000000000000000000000000000000000000040000",
      "transactionHash": "0x754fbc493c7da44da1f313983c194798589c9a241e10cf7b612ea98694b74ce9",
      "transactionIndex": "0xb",
      "blockHash": "0x3b76420368e0ab360b65e9fb9de6c7fe74cb42de6920b95cbf841f6c478fbf8d",
      "blockNumber": "0x569afa",
      "gasUsed": "0x343d8",
      "effectiveGasPrice": "0x2540e841e",
      "from": "0x8f3345e573f64453906a53f64945bf8b78322c84",
      "to": "0x20fc000000000000000000000000000000000000",
      "contractAddress": null,
      "feeToken": "0x20c0000000000000000000000000000000000001",
      "feePayer": "0x8f3345e573f64453906a53f64945bf8b78322c84"
    },
    {
      "type": "0x2",
      "status": "0x1",
      "cumulativeGasUsed": "0x24f836",
      "logs": [
        {
          "address": "0x20c0000000000000000000000000000000005f0e",
          "topics": [
            "0x4811f35680ba814bed6b0b926a2949c8a1000f4f2443cfe9978745d46a251aec",
            "0x114e74f6ea3bd819998f78687bfcb11b140da08e9b7d222fa9c1f1ba1f2aa122",
            "0x0000000000000000000000008f3345e573f64453906a53f64945bf8b78322c84",
            "0x0000000000000000000000008f3345e573f64453906a53f64945bf8b78322c84"
          ],
          "data": "0x0000000000000000000000000000000000000000000000000000000000000001",
          "blockHash": "0x3b76420368e0ab360b65e9fb9de6c7fe74cb42de6920b95cbf841f6c478fbf8d",
          "blockNumber": "0x569afa",
          "blockTimestamp": "0x69414c59",
          "transactionHash": "0x98f76fa5966c1a3b517898d3d98d0917d9e90032d2989bdf45b49b588224c868",
          "transactionIndex": "0xc",
          "logIndex": "0x26",
          "removed": false
        },
        {
          "address": "0x20c0000000000000000000000000000000000001",
          "topics": [
            "0xddf252ad1be2c89b69c2b068fc378daa952ba7f163c4a11628f55a4df523b3ef",
            "0x0000000000000000000000008f3345e573f64453906a53f64945bf8b78322c84",
            "0x000000000000000000000000feec000000000000000000000000000000000000"
          ],
          "data": "0x00000000000000000000000000000000000000000000000000000000000001f8",
          "blockHash": "0x3b76420368e0ab360b65e9fb9de6c7fe74cb42de6920b95cbf841f6c478fbf8d",
          "blockNumber": "0x569afa",
          "blockTimestamp": "0x69414c59",
          "transactionHash": "0x98f76fa5966c1a3b517898d3d98d0917d9e90032d2989bdf45b49b588224c868",
          "transactionIndex": "0xc",
          "logIndex": "0x27",
          "removed": false
        }
      ],
      "logsBloom": "0x00000000000000000000000000000000100000000000000000000000008000000008000000000000000000000000000000000000000000000000000000000000000006000000000000000008000000000008000000000000000000000000008000200000000000000000000000000000000000000000000000000050000000000000000000000000000000000020000000000000100000000040000000000000000020000000000000000000000000000000000000000000000000000001000000000002000000800000000000000100000000000000000000000800000000000000000004000000000000000000000000000000000000000000000000000000",
      "transactionHash": "0x98f76fa5966c1a3b517898d3d98d0917d9e90032d2989bdf45b49b588224c868",
      "transactionIndex": "0xc",
      "blockHash": "0x3b76420368e0ab360b65e9fb9de6c7fe74cb42de6920b95cbf841f6c478fbf8d",
      "blockNumber": "0x569afa",
      "gasUsed": "0xc4d9",
      "effectiveGasPrice": "0x2540e841e",
      "from": "0x8f3345e573f64453906a53f64945bf8b78322c84",
      "to": "0x20c0000000000000000000000000000000005f0e",
      "contractAddress": null,
      "feeToken": "0x20c0000000000000000000000000000000000001",
      "feePayer": "0x8f3345e573f64453906a53f64945bf8b78322c84"
    },
    {
      "type": "0x2",
      "status": "0x1",
      "cumulativeGasUsed": "0x269e55",
      "logs": [
        {
          "address": "0x20c0000000000000000000000000000000005f0e",
          "topics": [
            "0xddf252ad1be2c89b69c2b068fc378daa952ba7f163c4a11628f55a4df523b3ef",
            "0x0000000000000000000000000000000000000000000000000000000000000000",
            "0x0000000000000000000000008f3345e573f64453906a53f64945bf8b78322c84"
          ],
          "data": "0x000000000000000000000000000000000000000000000000000000e8d4a51000",
          "blockHash": "0x3b76420368e0ab360b65e9fb9de6c7fe74cb42de6920b95cbf841f6c478fbf8d",
          "blockNumber": "0x569afa",
          "blockTimestamp": "0x69414c59",
          "transactionHash": "0x8d502abdbbd0828034f13bb936f1d119c74198afb6da6f8746db38a80c7ef58d",
          "transactionIndex": "0xd",
          "logIndex": "0x28",
          "removed": false
        },
        {
          "address": "0x20c0000000000000000000000000000000005f0e",
          "topics": [
            "0x0f6798a560793a54c3bcfe86a93cde1e73087d944c0ea20544137d4121396885",
            "0x0000000000000000000000008f3345e573f64453906a53f64945bf8b78322c84"
          ],
          "data": "0x000000000000000000000000000000000000000000000000000000e8d4a51000",
          "blockHash": "0x3b76420368e0ab360b65e9fb9de6c7fe74cb42de6920b95cbf841f6c478fbf8d",
          "blockNumber": "0x569afa",
          "blockTimestamp": "0x69414c59",
          "transactionHash": "0x8d502abdbbd0828034f13bb936f1d119c74198afb6da6f8746db38a80c7ef58d",
          "transactionIndex": "0xd",
          "logIndex": "0x29",
          "removed": false
        },
        {
          "address": "0x20c0000000000000000000000000000000000001",
          "topics": [
            "0xddf252ad1be2c89b69c2b068fc378daa952ba7f163c4a11628f55a4df523b3ef",
            "0x0000000000000000000000008f3345e573f64453906a53f64945bf8b78322c84",
            "0x000000000000000000000000feec000000000000000000000000000000000000"
          ],
          "data": "0x0000000000000000000000000000000000000000000000000000000000000439",
          "blockHash": "0x3b76420368e0ab360b65e9fb9de6c7fe74cb42de6920b95cbf841f6c478fbf8d",
          "blockNumber": "0x569afa",
          "blockTimestamp": "0x69414c59",
          "transactionHash": "0x8d502abdbbd0828034f13bb936f1d119c74198afb6da6f8746db38a80c7ef58d",
          "transactionIndex": "0xd",
          "logIndex": "0x2a",
          "removed": false
        }
      ],
      "logsBloom": "0x000000000000000000000000000000000000000000000000000000000000000000080000000000000000000000000000000000000000000000000000000000000000040000200000000000080000000000080000000000000000000000000080002000000200000000000000000008000000000000004000000000100000000000000000000000000000000000200000000000001000000000400000000000000000a0000000000000000000000000000000000000000000000000000000000000000002000000800000000000000100000000000000000000000800000020000000000000000000000000000000000000000000000000000000000000000000",
      "transactionHash": "0x8d502abdbbd0828034f13bb936f1d119c74198afb6da6f8746db38a80c7ef58d",
      "transactionIndex": "0xd",
      "blockHash": "0x3b76420368e0ab360b65e9fb9de6c7fe74cb42de6920b95cbf841f6c478fbf8d",
      "blockNumber": "0x569afa",
      "gasUsed": "0x1a61f",
      "effectiveGasPrice": "0x2540e841e",
      "from": "0x8f3345e573f64453906a53f64945bf8b78322c84",
      "to": "0x20c0000000000000000000000000000000005f0e",
      "contractAddress": null,
      "feeToken": "0x20c0000000000000000000000000000000000001",
      "feePayer": "0x8f3345e573f64453906a53f64945bf8b78322c84"
    },
    {
      "type": "0x2",
      "status": "0x1",
      "cumulativeGasUsed": "0x2d8e25",
      "logs": [
        {
          "address": "0x20c0000000000000000000000000000000000001",
          "topics": [
            "0xddf252ad1be2c89b69c2b068fc378daa952ba7f163c4a11628f55a4df523b3ef",
            "0x0000000000000000000000008f3345e573f64453906a53f64945bf8b78322c84",
            "0x000000000000000000000000feec000000000000000000000000000000000000"
          ],
          "data": "0x00000000000000000000000000000000000000000000000000000000000011c3",
          "blockHash": "0x3b76420368e0ab360b65e9fb9de6c7fe74cb42de6920b95cbf841f6c478fbf8d",
          "blockNumber": "0x569afa",
          "blockTimestamp": "0x69414c59",
          "transactionHash": "0xd6a1e2dbe5b60b79aee4d4813e003d4f4bff5e704acfce4588177db272ea1c16",
          "transactionIndex": "0xe",
          "logIndex": "0x2b",
          "removed": false
        }
      ],
      "logsBloom": "0x00000000000000000000000000000000000000000000000000000000000000000008000000000000000000000000000000000000000000000000000000000000000004000000000000000008000000000008000000000000000000000000000000200000000000000000000000000000000000000000000000000010000000000000000000000000000000000020000000000000100000000040000000000000000020000000000000000000000000000000000000000000000000000000000000000002000000000000000000000000000000000000000000000800000000000000000000000000000000000000000000000000000000000000000000000000",
      "transactionHash": "0xd6a1e2dbe5b60b79aee4d4813e003d4f4bff5e704acfce4588177db272ea1c16",
      "transactionIndex": "0xe",
      "blockHash": "0x3b76420368e0ab360b65e9fb9de6c7fe74cb42de6920b95cbf841f6c478fbf8d",
      "blockNumber": "0x569afa",
      "gasUsed": "0x6efd0",
      "effectiveGasPrice": "0x2540e841e",
      "from": "0x8f3345e573f64453906a53f64945bf8b78322c84",
      "to": null,
      "contractAddress": "0xe63dccfe582e14d84578fd065d4bd5d6d8c9cbbd",
      "feeToken": "0x20c0000000000000000000000000000000000001",
      "feePayer": "0x8f3345e573f64453906a53f64945bf8b78322c84"
    }
  ],
  "libraries": [],
  "pending": [],
  "returns": {},
  "timestamp": 1765887067839,
  "chain": 42429,
  "commit": null
}